{
  "_format": "hh-sol-artifact-1",
  "contractName": "BloodDonation",
  "sourceName": "contracts/BloodDonation.sol",
  "abi": [
    {
      "anonymous": false,
      "inputs": [
        {
          "indexed": true,
          "internalType": "uint256",
          "name": "donationId",
          "type": "uint256"
        },
        {
          "indexed": true,
          "internalType": "address",
          "name": "donor",
          "type": "address"
        },
        {
          "indexed": false,
          "internalType": "string",
          "name": "bloodType",
          "type": "string"
        },
        {
          "indexed": false,
          "internalType": "uint256",
          "name": "quantity",
          "type": "uint256"
        }
      ],
      "name": "BloodDonated",
      "type": "event"
    },
    {
      "anonymous": false,
      "inputs": [
        {
          "indexed": true,
          "internalType": "uint256",
          "name": "requestId",
          "type": "uint256"
        },
        {
          "indexed": true,
          "internalType": "address",
          "name": "requester",
          "type": "address"
        },
        {
          "indexed": false,
          "internalType": "string",
          "name": "bloodType",
          "type": "string"
        },
        {
          "indexed": false,
          "internalType": "uint256",
          "name": "quantity",
          "type": "uint256"
        }
      ],
      "name": "BloodRequested",
      "type": "event"
    },
    {
      "anonymous": false,
      "inputs": [
        {
          "indexed": true,
          "internalType": "address",
          "name": "donor",
          "type": "address"
        },
        {
          "indexed": false,
          "internalType": "string",
          "name": "name",
          "type": "string"
        }
      ],
      "name": "DonorRegistered",
      "type": "event"
    },
    {
      "anonymous": false,
      "inputs": [
        {
          "indexed": true,
          "internalType": "uint256",
          "name": "requestId",
          "type": "uint256"
        },
        {
          "indexed": true,
          "internalType": "address",
          "name": "requester",
          "type": "address"
        },
        {
          "indexed": false,
          "internalType": "string",
          "name": "bloodType",
          "type": "string"
        },
        {
          "indexed": false,
          "internalType": "uint256",
          "name": "quantity",
          "type": "uint256"
        }
      ],
      "name": "RequestFulfilled",
      "type": "event"
    },
    {
      "inputs": [],
      "name": "DONATION_AMOUNT",
      "outputs": [
        {
          "internalType": "uint256",
          "name": "",
          "type": "uint256"
        }
      ],
      "stateMutability": "view",
      "type": "function"
    },
    {
      "inputs": [
        {
          "internalType": "string",
          "name": "bloodType",
          "type": "string"
        },
        {
          "internalType": "uint256",
          "name": "quantity",
          "type": "uint256"
        },
        {
          "internalType": "string",
          "name": "donorName",
          "type": "string"
        },
        {
          "internalType": "uint256",
          "name": "age",
          "type": "uint256"
        },
        {
          "internalType": "string",
          "name": "contact",
          "type": "string"
        }
      ],
      "name": "donate",
      "outputs": [],
      "stateMutability": "nonpayable",
      "type": "function"
    },
    {
      "inputs": [
        {
          "internalType": "uint256",
          "name": "",
          "type": "uint256"
        }
      ],
      "name": "donations",
      "outputs": [
        {
          "internalType": "address",
          "name": "donor",
          "type": "address"
        },
        {
          "internalType": "string",
          "name": "bloodType",
          "type": "string"
        },
        {
          "internalType": "uint256",
          "name": "quantity",
          "type": "uint256"
        },
        {
          "internalType": "string",
          "name": "donorName",
          "type": "string"
        },
        {
          "internalType": "uint256",
          "name": "age",
          "type": "uint256"
        },
        {
          "internalType": "string",
          "name": "contact",
          "type": "string"
        },
        {
          "internalType": "uint256",
          "name": "timestamp",
          "type": "uint256"
        },
        {
          "internalType": "bool",
          "name": "isValid",
          "type": "bool"
        }
      ],
      "stateMutability": "view",
      "type": "function"
    },
    {
      "inputs": [
        {
          "internalType": "address",
          "name": "",
          "type": "address"
        }
      ],
      "name": "donors",
      "outputs": [
        {
          "internalType": "string",
          "name": "name",
          "type": "string"
        },
        {
          "internalType": "uint256",
          "name": "age",
          "type": "uint256"
        },
        {
          "internalType": "string",
          "name": "contact",
          "type": "string"
        },
        {
          "internalType": "uint256",
          "name": "totalDonations",
          "type": "uint256"
        },
        {
          "internalType": "bool",
          "name": "isRegistered",
          "type": "bool"
        }
      ],
      "stateMutability": "view",
      "type": "function"
    },
    {
      "inputs": [
        {
          "internalType": "uint256",
          "name": "requestId",
          "type": "uint256"
        }
      ],
      "name": "fulfillRequest",
      "outputs": [],
      "stateMutability": "nonpayable",
      "type": "function"
    },
    {
      "inputs": [
        {
          "internalType": "string",
          "name": "bloodType",
          "type": "string"
        }
      ],
      "name": "getBloodTypeQuantity",
      "outputs": [
        {
          "internalType": "uint256",
          "name": "",
          "type": "uint256"
        }
      ],
      "stateMutability": "view",
      "type": "function"
    },
    {
      "inputs": [
        {
          "internalType": "uint256",
          "name": "donationId",
          "type": "uint256"
        }
      ],
      "name": "getDonation",
      "outputs": [
        {
          "internalType": "address",
          "name": "donor",
          "type": "address"
        },
        {
          "internalType": "string",
          "name": "bloodType",
          "type": "string"
        },
        {
          "internalType": "uint256",
          "name": "quantity",
          "type": "uint256"
        },
        {
          "internalType": "string",
          "name": "donorName",
          "type": "string"
        },
        {
          "internalType": "uint256",
          "name": "age",
          "type": "uint256"
        },
        {
          "internalType": "string",
          "name": "contact",
          "type": "string"
        },
        {
          "internalType": "uint256",
          "name": "timestamp",
          "type": "uint256"
        },
        {
          "internalType": "bool",
          "name": "isValid",
          "type": "bool"
        }
      ],
      "stateMutability": "view",
      "type": "function"
    },
    {
      "inputs": [
        {
          "internalType": "uint256",
          "name": "requestId",
          "type": "uint256"
        }
      ],
      "name": "getRequest",
      "outputs": [
        {
          "internalType": "address",
          "name": "requester",
          "type": "address"
        },
        {
          "internalType": "string",
          "name": "bloodType",
          "type": "string"
        },
        {
          "internalType": "uint256",
          "name": "quantity",
          "type": "uint256"
        },
        {
          "internalType": "string",
          "name": "recipientName",
          "type": "string"
        },
        {
          "internalType": "uint256",
          "name": "age",
          "type": "uint256"
        },
        {
          "internalType": "string",
          "name": "contact",
          "type": "string"
        },
        {
          "internalType": "string",
          "name": "hospital",
          "type": "string"
        },
        {
          "internalType": "string",
          "name": "reason",
          "type": "string"
        },
        {
          "internalType": "bool",
          "name": "fulfilled",
          "type": "bool"
        },
        {
          "internalType": "uint256",
          "name": "timestamp",
          "type": "uint256"
        },
        {
          "internalType": "bool",
          "name": "isValid",
          "type": "bool"
        }
      ],
      "stateMutability": "view",
      "type": "function"
    },
    {
      "inputs": [],
      "name": "getTotalDonations",
      "outputs": [
        {
          "internalType": "uint256",
          "name": "",
          "type": "uint256"
        }
      ],
      "stateMutability": "view",
      "type": "function"
    },
    {
      "inputs": [],
      "name": "getTotalDonors",
      "outputs": [
        {
          "internalType": "uint256",
          "name": "",
          "type": "uint256"
        }
      ],
      "stateMutability": "view",
      "type": "function"
    },
    {
      "inputs": [],
      "name": "getTotalRequests",
      "outputs": [
        {
          "internalType": "uint256",
          "name": "",
          "type": "uint256"
        }
      ],
      "stateMutability": "view",
      "type": "function"
    },
    {
      "inputs": [
        {
          "internalType": "string",
          "name": "bloodType",
          "type": "string"
        },
        {
          "internalType": "uint256",
          "name": "quantity",
          "type": "uint256"
        },
        {
          "internalType": "string",
          "name": "recipientName",
          "type": "string"
        },
        {
          "internalType": "uint256",
          "name": "age",
          "type": "uint256"
        },
        {
          "internalType": "string",
          "name": "contact",
          "type": "string"
        },
        {
          "internalType": "string",
          "name": "hospital",
          "type": "string"
        },
        {
          "internalType": "string",
          "name": "reason",
          "type": "string"
        }
      ],
      "name": "requestBlood",
      "outputs": [],
      "stateMutability": "nonpayable",
      "type": "function"
    },
    {
      "inputs": [
        {
          "internalType": "uint256",
          "name": "",
          "type": "uint256"
        }
      ],
      "name": "requests",
      "outputs": [
        {
          "internalType": "address",
          "name": "requester",
          "type": "address"
        },
        {
          "internalType": "string",
          "name": "bloodType",
          "type": "string"
        },
        {
          "internalType": "uint256",
          "name": "quantity",
          "type": "uint256"
        },
        {
          "internalType": "string",
          "name": "recipientName",
          "type": "string"
        },
        {
          "internalType": "uint256",
          "name": "age",
          "type": "uint256"
        },
        {
          "internalType": "string",
          "name": "contact",
          "type": "string"
        },
        {
          "internalType": "string",
          "name": "hospital",
          "type": "string"
        },
        {
          "internalType": "string",
          "name": "reason",
          "type": "string"
        },
        {
          "internalType": "bool",
          "name": "fulfilled",
          "type": "bool"
        },
        {
          "internalType": "uint256",
          "name": "timestamp",
          "type": "uint256"
        },
        {
          "internalType": "bool",
          "name": "isValid",
          "type": "bool"
        }
      ],
      "stateMutability": "view",
      "type": "function"
    }
  ],
  "bytecode": "0x6080604052348015600f57600080fd5b506135928061001f6000396000f3fe608060405234801561001057600080fd5b50600436106100cf5760003560e01c8063ca0cdea81161008c578063f0e22d5211610066578063f0e22d5214610257578063f3ceca2914610275578063f80b348814610293578063f8626af8146102af576100cf565b8063ca0cdea8146101ce578063e615a71214610202578063ef07a81f14610220576100cf565b806370273196146100d4578063777c658f146100f057806381d12c581461010e5780639a91eb0d146101485780639f60739914610164578063c58343ef14610194575b600080fd5b6100ee60048036038101906100e991906123f9565b6102e6565b005b6100f8610a5d565b60405161010591906124d7565b60405180910390f35b610128600480360381019061012391906124f2565b610a67565b60405161013f9b9a999897969594939291906125fa565b60405180910390f35b610162600480360381019061015d91906124f2565b610da3565b005b61017e600480360381019061017991906126c8565b610f3e565b60405161018b91906124d7565b60405180910390f35b6101ae60048036038101906101a991906124f2565b611208565b6040516101c59b9a999897969594939291906125fa565b60405180910390f35b6101e860048036038101906101e3919061273d565b6115c5565b6040516101f995949392919061276a565b60405180910390f35b61020a611718565b60405161021791906124d7565b60405180910390f35b61023a600480360381019061023591906124f2565b611722565b60405161024e9897969594939291906127cb565b60405180910390f35b61025f61199e565b60405161026c91906124d7565b60405180910390f35b61027d6119a8565b60405161028a91906124d7565b60405180910390f35b6102ad60048036038101906102a8919061285e565b6119ae565b005b6102c960048036038101906102c491906124f2565b61205c565b6040516102dd9897969594939291906127cb565b60405180910390f35b846040518060400160405280600281526020017f412b000000000000000000000000000000000000000000000000000000000000815250805190602001208180519060200120148061037a57506040518060400160405280600281526020017f412d000000000000000000000000000000000000000000000000000000000000815250805190602001208180519060200120145b806103c757506040518060400160405280600281526020017f422b000000000000000000000000000000000000000000000000000000000000815250805190602001208180519060200120145b8061041457506040518060400160405280600281526020017f422d000000000000000000000000000000000000000000000000000000000000815250805190602001208180519060200120145b8061046157506040518060400160405280600381526020017f41422b0000000000000000000000000000000000000000000000000000000000815250805190602001208180519060200120145b806104ae57506040518060400160405280600381526020017f41422d0000000000000000000000000000000000000000000000000000000000815250805190602001208180519060200120145b806104fb57506040518060400160405280600281526020017f4f2b000000000000000000000000000000000000000000000000000000000000815250805190602001208180519060200120145b8061054857506040518060400160405280600281526020017f4f2d000000000000000000000000000000000000000000000000000000000000815250805190602001208180519060200120145b610587576040517f08c379a000000000000000000000000000000000000000000000000000000000815260040161057e906129d8565b60405180910390fd5b826011811015801561059a575060468111155b6105d9576040517f08c379a00000000000000000000000000000000000000000000000000000000081526004016105d090612a6a565b60405180910390fd5b6101c2861461061d576040517f08c379a000000000000000000000000000000000000000000000000000000000815260040161061490612ad6565b60405180910390fd5b6000855111610661576040517f08c379a000000000000000000000000000000000000000000000000000000000815260040161065890612b42565b60405180910390fd5b60008351116106a5576040517f08c379a000000000000000000000000000000000000000000000000000000000815260040161069c90612bae565b60405180910390fd5b6000803373ffffffffffffffffffffffffffffffffffffffff1673ffffffffffffffffffffffffffffffffffffffff16815260200190815260200160002060040160009054906101000a900460ff1661082b576040518060a0016040528086815260200185815260200184815260200160008152602001600115158152506000803373ffffffffffffffffffffffffffffffffffffffff1673ffffffffffffffffffffffffffffffffffffffff16815260200190815260200160002060008201518160000190816107769190612dda565b506020820151816001015560408201518160020190816107969190612dda565b506060820151816003015560808201518160040160006101000a81548160ff021916908315150217905550905050600460008154809291906107d790612edb565b91905055503373ffffffffffffffffffffffffffffffffffffffff167ff6bba8a2d47514955cc8e64ea9127b51d5615832d1fbd20ec40275f0876cfcbf866040516108229190612f23565b60405180910390a25b6040518061010001604052803373ffffffffffffffffffffffffffffffffffffffff1681526020018881526020018781526020018681526020018581526020018481526020014281526020016001151581525060016000600554815260200190815260200160002060008201518160000160006101000a81548173ffffffffffffffffffffffffffffffffffffffff021916908373ffffffffffffffffffffffffffffffffffffffff16021790555060208201518160010190816108ef9190612dda565b5060408201518160020155606082015181600301908161090f9190612dda565b506080820151816004015560a082015181600501908161092f9190612dda565b5060c0820151816006015560e08201518160070160006101000a81548160ff0219169083151502179055509050508560038860405161096e9190612f81565b9081526020016040518091039020600082825461098b9190612f98565b925050819055506000803373ffffffffffffffffffffffffffffffffffffffff1673ffffffffffffffffffffffffffffffffffffffff16815260200190815260200160002060030160008154809291906109e490612edb565b91905055503373ffffffffffffffffffffffffffffffffffffffff166005547f68b2ba08dd2aa058a3987fd387fa1edcd171ad019a8db5e561dd741fab8482e88989604051610a34929190612fcc565b60405180910390a360056000815480929190610a4f90612edb565b919050555050505050505050565b6000600554905090565b60026020528060005260406000206000915090508060000160009054906101000a900473ffffffffffffffffffffffffffffffffffffffff1690806001018054610ab090612bfd565b80601f0160208091040260200160405190810160405280929190818152602001828054610adc90612bfd565b8015610b295780601f10610afe57610100808354040283529160200191610b29565b820191906000526020600020905b815481529060010190602001808311610b0c57829003601f168201915b505050505090806002015490806003018054610b4490612bfd565b80601f0160208091040260200160405190810160405280929190818152602001828054610b7090612bfd565b8015610bbd5780601f10610b9257610100808354040283529160200191610bbd565b820191906000526020600020905b815481529060010190602001808311610ba057829003601f168201915b505050505090806004015490806005018054610bd890612bfd565b80601f0160208091040260200160405190810160405280929190818152602001828054610c0490612bfd565b8015610c515780601f10610c2657610100808354040283529160200191610c51565b820191906000526020600020905b815481529060010190602001808311610c3457829003601f168201915b505050505090806006018054610c6690612bfd565b80601f0160208091040260200160405190810160405280929190818152602001828054610c9290612bfd565b8015610cdf5780601f10610cb457610100808354040283529160200191610cdf565b820191906000526020600020905b815481529060010190602001808311610cc257829003601f168201915b505050505090806007018054610cf490612bfd565b80601f0160208091040260200160405190810160405280929190818152602001828054610d2090612bfd565b8015610d6d5780601f10610d4257610100808354040283529160200191610d6d565b820191906000526020600020905b815481529060010190602001808311610d5057829003601f168201915b5050505050908060080160009054906101000a900460ff169080600901549080600a0160009054906101000a900460ff1690508b565b6006548110610de7576040517f08c379a0000000000000000000000000000000000000000000000000000000008152600401610dde90613048565b60405180910390fd5b600060026000838152602001908152602001600020905080600a0160009054906101000a900460ff16610e4f576040517f08c379a0000000000000000000000000000000000000000000000000000000008152600401610e46906130b4565b60405180910390fd5b8060080160009054906101000a900460ff1615610ea1576040517f08c379a0000000000000000000000000000000000000000000000000000000008152600401610e9890613120565b60405180910390fd5b60018160080160006101000a81548160ff0219169083151502179055508060000160009054906101000a900473ffffffffffffffffffffffffffffffffffffffff1673ffffffffffffffffffffffffffffffffffffffff16827fb26fba2e3325ef891bb5eb2ecb139e8b58f9b78ed4b41d890c0efbedb7cad8e3836001018460020154604051610f329291906131c4565b60405180910390a35050565b6000816040518060400160405280600281526020017f412b0000000000000000000000000000000000000000000000000000000000008152508051906020012081805190602001201480610fd457506040518060400160405280600281526020017f412d000000000000000000000000000000000000000000000000000000000000815250805190602001208180519060200120145b8061102157506040518060400160405280600281526020017f422b000000000000000000000000000000000000000000000000000000000000815250805190602001208180519060200120145b8061106e57506040518060400160405280600281526020017f422d000000000000000000000000000000000000000000000000000000000000815250805190602001208180519060200120145b806110bb57506040518060400160405280600381526020017f41422b0000000000000000000000000000000000000000000000000000000000815250805190602001208180519060200120145b8061110857506040518060400160405280600381526020017f41422d0000000000000000000000000000000000000000000000000000000000815250805190602001208180519060200120145b8061115557506040518060400160405280600281526020017f4f2b000000000000000000000000000000000000000000000000000000000000815250805190602001208180519060200120145b806111a257506040518060400160405280600281526020017f4f2d000000000000000000000000000000000000000000000000000000000000815250805190602001208180519060200120145b6111e1576040517f08c379a00000000000000000000000000000000000000000000000000000000081526004016111d8906129d8565b60405180910390fd5b6003836040516111f19190612f81565b908152602001604051809103902054915050919050565b60006060600060606000606080606060008060006006548c10611260576040517f08c379a000000000000000000000000000000000000000000000000000000000815260040161125790613048565b60405180910390fd5b6000600260008e815260200190815260200160002090508060000160009054906101000a900473ffffffffffffffffffffffffffffffffffffffff168160010182600201548360030184600401548560050186600601876007018860080160009054906101000a900460ff1689600901548a600a0160009054906101000a900460ff168980546112ef90612bfd565b80601f016020809104026020016040519081016040528092919081815260200182805461131b90612bfd565b80156113685780601f1061133d57610100808354040283529160200191611368565b820191906000526020600020905b81548152906001019060200180831161134b57829003601f168201915b5050505050995087805461137b90612bfd565b80601f01602080910402602001604051908101604052809291908181526020018280546113a790612bfd565b80156113f45780601f106113c9576101008083540402835291602001916113f4565b820191906000526020600020905b8154815290600101906020018083116113d757829003601f168201915b5050505050975085805461140790612bfd565b80601f016020809104026020016040519081016040528092919081815260200182805461143390612bfd565b80156114805780601f1061145557610100808354040283529160200191611480565b820191906000526020600020905b81548152906001019060200180831161146357829003601f168201915b5050505050955084805461149390612bfd565b80601f01602080910402602001604051908101604052809291908181526020018280546114bf90612bfd565b801561150c5780601f106114e15761010080835404028352916020019161150c565b820191906000526020600020905b8154815290600101906020018083116114ef57829003601f168201915b5050505050945083805461151f90612bfd565b80601f016020809104026020016040519081016040528092919081815260200182805461154b90612bfd565b80156115985780601f1061156d57610100808354040283529160200191611598565b820191906000526020600020905b81548152906001019060200180831161157b57829003601f168201915b505050505093509b509b509b509b509b509b509b509b509b509b509b505091939597999b90929496989a50565b60006020528060005260406000206000915090508060000180546115e890612bfd565b80601f016020809104026020016040519081016040528092919081815260200182805461161490612bfd565b80156116615780601f1061163657610100808354040283529160200191611661565b820191906000526020600020905b81548152906001019060200180831161164457829003601f168201915b50505050509080600101549080600201805461167c90612bfd565b80601f01602080910402602001604051908101604052809291908181526020018280546116a890612bfd565b80156116f55780601f106116ca576101008083540402835291602001916116f5565b820191906000526020600020905b8154815290600101906020018083116116d857829003601f168201915b5050505050908060030154908060040160009054906101000a900460ff16905085565b6000600454905090565b6000606060006060600060606000806005548910611775576040517f08c379a000000000000000000000000000000000000000000000000000000000815260040161176c90613240565b60405180910390fd5b6000600160008b815260200190815260200160002090508060000160009054906101000a900473ffffffffffffffffffffffffffffffffffffffff168160010182600201548360030184600401548560050186600601548760070160009054906101000a900460ff168680546117ea90612bfd565b80601f016020809104026020016040519081016040528092919081815260200182805461181690612bfd565b80156118635780601f1061183857610100808354040283529160200191611863565b820191906000526020600020905b81548152906001019060200180831161184657829003601f168201915b5050505050965084805461187690612bfd565b80601f01602080910402602001604051908101604052809291908181526020018280546118a290612bfd565b80156118ef5780601f106118c4576101008083540402835291602001916118ef565b820191906000526020600020905b8154815290600101906020018083116118d257829003601f168201915b5050505050945082805461190290612bfd565b80601f016020809104026020016040519081016040528092919081815260200182805461192e90612bfd565b801561197b5780601f106119505761010080835404028352916020019161197b565b820191906000526020600020905b81548152906001019060200180831161195e57829003601f168201915b505050505092509850985098509850985098509850985050919395975091939597565b6000600654905090565b6101c281565b866040518060400160405280600281526020017f412b0000000000000000000000000000000000000000000000000000000000008152508051906020012081805190602001201480611a4257506040518060400160405280600281526020017f412d000000000000000000000000000000000000000000000000000000000000815250805190602001208180519060200120145b80611a8f57506040518060400160405280600281526020017f422b000000000000000000000000000000000000000000000000000000000000815250805190602001208180519060200120145b80611adc57506040518060400160405280600281526020017f422d000000000000000000000000000000000000000000000000000000000000815250805190602001208180519060200120145b80611b2957506040518060400160405280600381526020017f41422b0000000000000000000000000000000000000000000000000000000000815250805190602001208180519060200120145b80611b7657506040518060400160405280600381526020017f41422d0000000000000000000000000000000000000000000000000000000000815250805190602001208180519060200120145b80611bc357506040518060400160405280600281526020017f4f2b000000000000000000000000000000000000000000000000000000000000815250805190602001208180519060200120145b80611c1057506040518060400160405280600281526020017f4f2d000000000000000000000000000000000000000000000000000000000000815250805190602001208180519060200120145b611c4f576040517f08c379a0000000000000000000000000000000000000000000000000000000008152600401611c46906129d8565b60405180910390fd5b600087118015611c6c575060006101c288611c6a919061328f565b145b611cab576040517f08c379a0000000000000000000000000000000000000000000000000000000008152600401611ca290613332565b60405180910390fd5b86600389604051611cbc9190612f81565b9081526020016040518091039020541015611d0c576040517f08c379a0000000000000000000000000000000000000000000000000000000008152600401611d03906133c4565b60405180910390fd5b6000865111611d50576040517f08c379a0000000000000000000000000000000000000000000000000000000008152600401611d4790613430565b60405180910390fd5b6000845111611d94576040517f08c379a0000000000000000000000000000000000000000000000000000000008152600401611d8b90612bae565b60405180910390fd5b6000835111611dd8576040517f08c379a0000000000000000000000000000000000000000000000000000000008152600401611dcf9061349c565b60405180910390fd5b6000825111611e1c576040517f08c379a0000000000000000000000000000000000000000000000000000000008152600401611e1390613508565b60405180910390fd5b6040518061016001604052803373ffffffffffffffffffffffffffffffffffffffff1681526020018981526020018881526020018781526020018681526020018581526020018481526020018381526020016000151581526020014281526020016001151581525060026000600654815260200190815260200160002060008201518160000160006101000a81548173ffffffffffffffffffffffffffffffffffffffff021916908373ffffffffffffffffffffffffffffffffffffffff1602179055506020820151816001019081611ef59190612dda565b50604082015181600201556060820151816003019081611f159190612dda565b506080820151816004015560a0820151816005019081611f359190612dda565b5060c0820151816006019081611f4b9190612dda565b5060e0820151816007019081611f619190612dda565b506101008201518160080160006101000a81548160ff021916908315150217905550610120820151816009015561014082015181600a0160006101000a81548160ff02191690831515021790555090505086600389604051611fc39190612f81565b90815260200160405180910390206000828254611fe09190613528565b925050819055503373ffffffffffffffffffffffffffffffffffffffff166006547f69d11125dae88133c147a18b5ab14a252541c4c2964acdcb0a36e03d669acdbb8a8a604051612032929190612fcc565b60405180910390a36006600081548092919061204d90612edb565b91905055505050505050505050565b60016020528060005260406000206000915090508060000160009054906101000a900473ffffffffffffffffffffffffffffffffffffffff16908060010180546120a590612bfd565b80601f01602080910402602001604051908101604052809291908181526020018280546120d190612bfd565b801561211e5780601f106120f35761010080835404028352916020019161211e565b820191906000526020600020905b81548152906001019060200180831161210157829003601f168201915b50505050509080600201549080600301805461213990612bfd565b80601f016020809104026020016040519081016040528092919081815260200182805461216590612bfd565b80156121b25780601f10612187576101008083540402835291602001916121b2565b820191906000526020600020905b81548152906001019060200180831161219557829003601f168201915b5050505050908060040154908060050180546121cd90612bfd565b80601f01602080910402602001604051908101604052809291908181526020018280546121f990612bfd565b80156122465780601f1061221b57610100808354040283529160200191612246565b820191906000526020600020905b81548152906001019060200180831161222957829003601f168201915b5050505050908060060154908060070160009054906101000a900460ff16905088565b6000604051905090565b600080fd5b600080fd5b600080fd5b600080fd5b6000601f19601f8301169050919050565b7f4e487b7100000000000000000000000000000000000000000000000000000000600052604160045260246000fd5b6122d082612287565b810181811067ffffffffffffffff821117156122ef576122ee612298565b5b80604052505050565b6000612302612269565b905061230e82826122c7565b919050565b600067ffffffffffffffff82111561232e5761232d612298565b5b61233782612287565b9050602081019050919050565b82818337600083830152505050565b600061236661236184612313565b6122f8565b90508281526020810184848401111561238257612381612282565b5b61238d848285612344565b509392505050565b600082601f8301126123aa576123a961227d565b5b81356123ba848260208601612353565b91505092915050565b6000819050919050565b6123d6816123c3565b81146123e157600080fd5b50565b6000813590506123f3816123cd565b92915050565b600080600080600060a0868803121561241557612414612273565b5b600086013567ffffffffffffffff81111561243357612432612278565b5b61243f88828901612395565b9550506020612450888289016123e4565b945050604086013567ffffffffffffffff81111561247157612470612278565b5b61247d88828901612395565b935050606061248e888289016123e4565b925050608086013567ffffffffffffffff8111156124af576124ae612278565b5b6124bb88828901612395565b9150509295509295909350565b6124d1816123c3565b82525050565b60006020820190506124ec60008301846124c8565b92915050565b60006020828403121561250857612507612273565b5b6000612516848285016123e4565b91505092915050565b600073ffffffffffffffffffffffffffffffffffffffff82169050919050565b600061254a8261251f565b9050919050565b61255a8161253f565b82525050565b600081519050919050565b600082825260208201905092915050565b60005b8381101561259a57808201518184015260208101905061257f565b60008484015250505050565b60006125b182612560565b6125bb818561256b565b93506125cb81856020860161257c565b6125d481612287565b840191505092915050565b60008115159050919050565b6125f4816125df565b82525050565b600061016082019050612610600083018e612551565b8181036020830152612622818d6125a6565b9050612631604083018c6124c8565b8181036060830152612643818b6125a6565b9050612652608083018a6124c8565b81810360a083015261266481896125a6565b905081810360c083015261267881886125a6565b905081810360e083015261268c81876125a6565b905061269c6101008301866125eb565b6126aa6101208301856124c8565b6126b86101408301846125eb565b9c9b505050505050505050505050565b6000602082840312156126de576126dd612273565b5b600082013567ffffffffffffffff8111156126fc576126fb612278565b5b61270884828501612395565b91505092915050565b61271a8161253f565b811461272557600080fd5b50565b60008135905061273781612711565b92915050565b60006020828403121561275357612752612273565b5b600061276184828501612728565b91505092915050565b600060a082019050818103600083015261278481886125a6565b905061279360208301876124c8565b81810360408301526127a581866125a6565b90506127b460608301856124c8565b6127c160808301846125eb565b9695505050505050565b6000610100820190506127e1600083018b612551565b81810360208301526127f3818a6125a6565b905061280260408301896124c8565b818103606083015261281481886125a6565b905061282360808301876124c8565b81810360a083015261283581866125a6565b905061284460c08301856124c8565b61285160e08301846125eb565b9998505050505050505050565b600080600080600080600060e0888a03121561287d5761287c612273565b5b600088013567ffffffffffffffff81111561289b5761289a612278565b5b6128a78a828b01612395565b97505060206128b88a828b016123e4565b965050604088013567ffffffffffffffff8111156128d9576128d8612278565b5b6128e58a828b01612395565b95505060606128f68a828b016123e4565b945050608088013567ffffffffffffffff81111561291757612916612278565b5b6129238a828b01612395565b93505060a088013567ffffffffffffffff81111561294457612943612278565b5b6129508a828b01612395565b92505060c088013567ffffffffffffffff81111561297157612970612278565b5b61297d8a828b01612395565b91505092959891949750929550565b7f496e76616c696420626c6f6f6420747970650000000000000000000000000000600082015250565b60006129c260128361256b565b91506129cd8261298c565b602082019050919050565b600060208201905081810360008301526129f1816129b5565b9050919050565b7f446f6e6f72206d757374206265206265747765656e20313720616e642037302060008201527f7965617273206f6c640000000000000000000000000000000000000000000000602082015250565b6000612a5460298361256b565b9150612a5f826129f8565b604082019050919050565b60006020820190508181036000830152612a8381612a47565b9050919050565b7f446f6e6174696f6e20616d6f756e74206d757374206265203435306d6c000000600082015250565b6000612ac0601d8361256b565b9150612acb82612a8a565b602082019050919050565b60006020820190508181036000830152612aef81612ab3565b9050919050565b7f446f6e6f72206e616d6520697320726571756972656400000000000000000000600082015250565b6000612b2c60168361256b565b9150612b3782612af6565b602082019050919050565b60006020820190508181036000830152612b5b81612b1f565b9050919050565b7f436f6e7461637420696e666f726d6174696f6e20697320726571756972656400600082015250565b6000612b98601f8361256b565b9150612ba382612b62565b602082019050919050565b60006020820190508181036000830152612bc781612b8b565b9050919050565b7f4e487b7100000000000000000000000000000000000000000000000000000000600052602260045260246000fd5b60006002820490506001821680612c1557607f821691505b602082108103612c2857612c27612bce565b5b50919050565b60008190508160005260206000209050919050565b60006020601f8301049050919050565b600082821b905092915050565b600060088302612c907fffffffffffffffffffffffffffffffffffffffffffffffffffffffffffffffff82612c53565b612c9a8683612c53565b95508019841693508086168417925050509392505050565b6000819050919050565b6000612cd7612cd2612ccd846123c3565b612cb2565b6123c3565b9050919050565b6000819050919050565b612cf183612cbc565b612d05612cfd82612cde565b848454612c60565b825550505050565b600090565b612d1a612d0d565b612d25818484612ce8565b505050565b5b81811015612d4957612d3e600082612d12565b600181019050612d2b565b5050565b601f821115612d8e57612d5f81612c2e565b612d6884612c43565b81016020851015612d77578190505b612d8b612d8385612c43565b830182612d2a565b50505b505050565b600082821c905092915050565b6000612db160001984600802612d93565b1980831691505092915050565b6000612dca8383612da0565b9150826002028217905092915050565b612de382612560565b67ffffffffffffffff811115612dfc57612dfb612298565b5b612e068254612bfd565b612e11828285612d4d565b600060209050601f831160018114612e445760008415612e32578287015190505b612e3c8582612dbe565b865550612ea4565b601f198416612e5286612c2e565b60005b82811015612e7a57848901518255600182019150602085019450602081019050612e55565b86831015612e975784890151612e93601f891682612da0565b8355505b6001600288020188555050505b505050505050565b7f4e487b7100000000000000000000000000000000000000000000000000000000600052601160045260246000fd5b6000612ee6826123c3565b91507fffffffffffffffffffffffffffffffffffffffffffffffffffffffffffffffff8203612f1857612f17612eac565b5b600182019050919050565b60006020820190508181036000830152612f3d81846125a6565b905092915050565b600081905092915050565b6000612f5b82612560565b612f658185612f45565b9350612f7581856020860161257c565b80840191505092915050565b6000612f8d8284612f50565b915081905092915050565b6000612fa3826123c3565b9150612fae836123c3565b9250828201905080821115612fc657612fc5612eac565b5b92915050565b60006040820190508181036000830152612fe681856125a6565b9050612ff560208301846124c8565b9392505050565b7f496e76616c696420726571756573742049440000000000000000000000000000600082015250565b600061303260128361256b565b915061303d82612ffc565b602082019050919050565b6000602082019050818103600083015261306181613025565b9050919050565b7f52657175657374206973206e6f742076616c6964000000000000000000000000600082015250565b600061309e60148361256b565b91506130a982613068565b602082019050919050565b600060208201905081810360008301526130cd81613091565b9050919050565b7f5265717565737420616c72656164792066756c66696c6c656400000000000000600082015250565b600061310a60198361256b565b9150613115826130d4565b602082019050919050565b60006020820190508181036000830152613139816130fd565b9050919050565b6000815461314d81612bfd565b613157818661256b565b945060018216600081146131725760018114613188576131bb565b60ff1983168652811515602002860193506131bb565b61319185612c2e565b60005b838110156131b357815481890152600182019150602081019050613194565b808801955050505b50505092915050565b600060408201905081810360008301526131de8185613140565b90506131ed60208301846124c8565b9392505050565b7f496e76616c696420646f6e6174696f6e20494400000000000000000000000000600082015250565b600061322a60138361256b565b9150613235826131f4565b602082019050919050565b600060208201905081810360008301526132598161321d565b9050919050565b7f4e487b7100000000000000000000000000000000000000000000000000000000600052601260045260246000fd5b600061329a826123c3565b91506132a5836123c3565b9250826132b5576132b4613260565b5b828206905092915050565b7f5175616e74697479206d75737420626520696e20756e697473206f662034353060008201527f6d6c000000000000000000000000000000000000000000000000000000000000602082015250565b600061331c60228361256b565b9150613327826132c0565b604082019050919050565b6000602082019050818103600083015261334b8161330f565b9050919050565b7f496e73756666696369656e7420626c6f6f64207175616e74697479206176616960008201527f6c61626c65000000000000000000000000000000000000000000000000000000602082015250565b60006133ae60258361256b565b91506133b982613352565b604082019050919050565b600060208201905081810360008301526133dd816133a1565b9050919050565b7f526563697069656e74206e616d65206973207265717569726564000000000000600082015250565b600061341a601a8361256b565b9150613425826133e4565b602082019050919050565b600060208201905081810360008301526134498161340d565b9050919050565b7f486f73706974616c206e616d6520697320726571756972656400000000000000600082015250565b600061348660198361256b565b915061349182613450565b602082019050919050565b600060208201905081810360008301526134b581613479565b9050919050565b7f526561736f6e20666f7220726571756573742069732072657175697265640000600082015250565b60006134f2601e8361256b565b91506134fd826134bc565b602082019050919050565b60006020820190508181036000830152613521816134e5565b9050919050565b6000613533826123c3565b915061353e836123c3565b925082820390508181111561355657613555612eac565b5b9291505056fea2646970667358221220ccbedd68f87e5f5c29521b44d37da5480bd8e688f7cc81ed2c39accd021b340564736f6c634300081b0033",
  "linkReferences": {},
  "deployedLinkReferences": {}
}